:100000000C9437000C9402010C9402010C94020130
:100010000C9402010C9402010C9402010C94020154
:100020000C9402010C9402010C9402010C94020144
:100030000C9402010C9402010C9402010C94020134
:100040000C9402010C9402010C9402010C94020124
:100050000C9402010C9402010C9402010C94020114
:100060000C9402010C94020101000104800011248F
:100070001FBECFEFD8E0DEBFCDBFE8E6F0E040E046
:1000800017C0B591A59135912591059107FD0CC03B
:1000900095918591EF01F92FE82F05900D92A21708
:1000A000B307D9F7FE0104C01D92A217B307E1F709
:1000B000ED36F40731F70E94FC000C945F00F894D1
:0200C000FFCF70
:1000C2005C9800E007BD549A02E400937C0007E8C4
:1000D20000937A0028E02093C10006E00093C2005A
:1000E20007E60093C40007EC00937A0000917A00BF
:1000F20004FFFCCF20917800309179002093000119
:100102003093010132300CF002C05C98ECCF5C9A63
:1001120026D002D000E0E7CF40E040938500409334
:1001220084004AE74093890041E14093880040E01F
:100132004093800044E040938100B19BFECF30E0C9
:10014200309381003093800030E042E046BB089556
:100152000091C00005FFFCCFA093C6000895A0E562
:10016200F7DFAFE4F5DFA4E5F3DFA5E4F1DFAEE40A
:10017200EFDFA4E5EDDFA9E4EBDFA1E4E9DFACE426
:10018200E7DFACE4E5DFA9E5E3DFA0E2E1DFA4E439
:10019200DFDFA1E4DDDFAEE4DBDFA7E4D9DFA5E446
:1001A200D7DFA2E5D5DFAFE4D3DFA5E5D1DFA3E555
:1001B200CFDFA0E2CDDFAEE4CBDFAFE4C9DFA9E45D
:1001C200C7DFA3E5C5DFA5E4C3DFA0E2C1DFA4E486
:1001D200BFDFA5E4BDDFA4E5BBDFA5E4B9DFA3E48F
:1001E200B7DFA4E5B5DFA5E4B3DFA4E4B1DFAAE09D
:0601F200AFDF089508953F
:0C01F80000000E94610080E090E008958B
:040204000C94000056
:00000001FF
